{
  "contractName": "FlightSuretyApp",
  "abi": [
    {
      "constant": true,
      "inputs": [],
      "name": "REGISTRATION_FEE",
      "outputs": [
        {
          "name": "",
          "type": "uint256"
        }
      ],
      "payable": false,
      "stateMutability": "view",
      "type": "function"
    },
    {
      "inputs": [
        {
          "name": "dataContract",
          "type": "address"
        }
      ],
      "payable": false,
      "stateMutability": "nonpayable",
      "type": "constructor"
    },
    {
      "payable": true,
      "stateMutability": "payable",
      "type": "fallback"
    },
    {
      "anonymous": false,
      "inputs": [
        {
          "indexed": false,
          "name": "airline",
          "type": "address"
        },
        {
          "indexed": false,
          "name": "flight",
          "type": "string"
        },
        {
          "indexed": false,
          "name": "timestamp",
          "type": "uint256"
        },
        {
          "indexed": false,
          "name": "status",
          "type": "uint8"
        }
      ],
      "name": "FlightStatusInfo",
      "type": "event"
    },
    {
      "anonymous": false,
      "inputs": [
        {
          "indexed": false,
          "name": "airline",
          "type": "address"
        },
        {
          "indexed": false,
          "name": "flight",
          "type": "string"
        },
        {
          "indexed": false,
          "name": "timestamp",
          "type": "uint256"
        },
        {
          "indexed": false,
          "name": "status",
          "type": "uint8"
        }
      ],
      "name": "OracleReport",
      "type": "event"
    },
    {
      "anonymous": false,
      "inputs": [
        {
          "indexed": false,
          "name": "index",
          "type": "uint8"
        },
        {
          "indexed": false,
          "name": "airline",
          "type": "address"
        },
        {
          "indexed": false,
          "name": "flight",
          "type": "string"
        },
        {
          "indexed": false,
          "name": "timestamp",
          "type": "uint256"
        }
      ],
      "name": "OracleRequest",
      "type": "event"
    },
    {
      "constant": true,
      "inputs": [],
      "name": "isOperational",
      "outputs": [
        {
          "name": "",
          "type": "bool"
        }
      ],
      "payable": false,
      "stateMutability": "view",
      "type": "function"
    },
    {
      "constant": true,
      "inputs": [
        {
          "name": "isTrue",
          "type": "bool"
        }
      ],
      "name": "testIsBool",
      "outputs": [
        {
          "name": "",
          "type": "bool"
        }
      ],
      "payable": false,
      "stateMutability": "view",
      "type": "function"
    },
    {
      "constant": false,
      "inputs": [
        {
          "name": "airline",
          "type": "address"
        }
      ],
      "name": "registerAirline",
      "outputs": [
        {
          "name": "success",
          "type": "bool"
        },
        {
          "name": "votes",
          "type": "uint256"
        }
      ],
      "payable": false,
      "stateMutability": "nonpayable",
      "type": "function"
    },
    {
      "constant": false,
      "inputs": [
        {
          "name": "flight",
          "type": "string"
        },
        {
          "name": "departureTimestamp",
          "type": "uint256"
        }
      ],
      "name": "registerFlight",
      "outputs": [
        {
          "name": "",
          "type": "bool"
        }
      ],
      "payable": false,
      "stateMutability": "nonpayable",
      "type": "function"
    },
    {
      "constant": false,
      "inputs": [
        {
          "name": "airline",
          "type": "address"
        },
        {
          "name": "flight",
          "type": "string"
        },
        {
          "name": "timestamp",
          "type": "uint256"
        }
      ],
      "name": "fetchFlightStatus",
      "outputs": [],
      "payable": false,
      "stateMutability": "nonpayable",
      "type": "function"
    },
    {
      "constant": false,
      "inputs": [],
      "name": "registerOracle",
      "outputs": [],
      "payable": true,
      "stateMutability": "payable",
      "type": "function"
    },
    {
      "constant": true,
      "inputs": [],
      "name": "getMyIndexes",
      "outputs": [
        {
          "name": "",
          "type": "uint8[3]"
        }
      ],
      "payable": false,
      "stateMutability": "view",
      "type": "function"
    },
    {
      "constant": false,
      "inputs": [
        {
          "name": "index",
          "type": "uint8"
        },
        {
          "name": "airline",
          "type": "address"
        },
        {
          "name": "flight",
          "type": "string"
        },
        {
          "name": "timestamp",
          "type": "uint256"
        },
        {
          "name": "statusCode",
          "type": "uint8"
        }
      ],
      "name": "submitOracleResponse",
      "outputs": [],
      "payable": false,
      "stateMutability": "nonpayable",
      "type": "function"
    }
  ],
  "bytecode": "0x60806040526000600160146101000a81548160ff021916908360ff16021790555034801561002c57600080fd5b50604051602080611ec28339810180604052602081101561004c57600080fd5b8101908080519060200190929190505050336000806101000a81548173ffffffffffffffffffffffffffffffffffffffff021916908373ffffffffffffffffffffffffffffffffffffffff16021790555080600160006101000a81548173ffffffffffffffffffffffffffffffffffffffff021916908373ffffffffffffffffffffffffffffffffffffffff16021790555050611dd4806100ee6000396000f3fe6080604052600436106100865760003560e01c8063abf6d8f111610059578063abf6d8f114610296578063bdfd9877146102eb578063c10f27001461035b578063cd905dff14610425578063f83f11c01461045457610086565b8063339d25901461016657806339cfc995146101705780635f1cc0e61461021857806364b4f7511461026b575b600160009054906101000a900473ffffffffffffffffffffffffffffffffffffffff1673ffffffffffffffffffffffffffffffffffffffff16632b2bb45334336040518363ffffffff1660e01b8152600401808273ffffffffffffffffffffffffffffffffffffffff1673ffffffffffffffffffffffffffffffffffffffff1681526020019150506020604051808303818588803b15801561012757600080fd5b505af115801561013b573d6000803e3d6000fd5b50505050506040513d602081101561015257600080fd5b810190808051906020019092919050505050005b61016e610504565b005b34801561017c57600080fd5b506101fe6004803603604081101561019357600080fd5b81019080803590602001906401000000008111156101b057600080fd5b8201836020820111156101c257600080fd5b803590602001918460018302840111640100000000831117156101e457600080fd5b90919293919293908035906020019092919050505061062a565b604051808215151515815260200191505060405180910390f35b34801561022457600080fd5b5061022d6108d9565b6040518082600360200280838360005b8381101561025857808201518184015260208101905061023d565b5050505090500191505060405180910390f35b34801561027757600080fd5b50610280610a4c565b6040518082815260200191505060405180910390f35b3480156102a257600080fd5b506102d1600480360360208110156102b957600080fd5b81019080803515159060200190929190505050610a58565b604051808215151515815260200191505060405180910390f35b3480156102f757600080fd5b5061033a6004803603602081101561030e57600080fd5b81019080803573ffffffffffffffffffffffffffffffffffffffff169060200190929190505050610abf565b60405180831515151581526020018281526020019250505060405180910390f35b34801561036757600080fd5b50610423600480360360a081101561037e57600080fd5b81019080803560ff169060200190929190803573ffffffffffffffffffffffffffffffffffffffff169060200190929190803590602001906401000000008111156103c857600080fd5b8201836020820111156103da57600080fd5b803590602001918460018302840111640100000000831117156103fc57600080fd5b909192939192939080359060200190929190803560ff169060200190929190505050610d70565b005b34801561043157600080fd5b5061043a6112f7565b604051808215151515815260200191505060405180910390f35b34801561046057600080fd5b506105026004803603606081101561047757600080fd5b81019080803573ffffffffffffffffffffffffffffffffffffffff169060200190929190803590602001906401000000008111156104b457600080fd5b8201836020820111156104c657600080fd5b803590602001918460018302840111640100000000831117156104e857600080fd5b9091929391929390803590602001909291905050506113a1565b005b670de0b6b3a7640000341015610582576040517f08c379a000000000000000000000000000000000000000000000000000000000815260040180806020018281038252601c8152602001807f526567697374726174696f6e206665652069732072657175697265640000000081525060200191505060405180910390fd5b61058a611bf7565b610593336115ef565b9050604051806040016040528060011515815260200182815250600260003373ffffffffffffffffffffffffffffffffffffffff1673ffffffffffffffffffffffffffffffffffffffff16815260200190815260200160002060008201518160000160006101000a81548160ff021916908315150217905550602082015181600101906003610623929190611c19565b5090505050565b60006106346112f7565b610689576040517f08c379a0000000000000000000000000000000000000000000000000000000008152600401808060200182810382526025815260200180611d136025913960400191505060405180910390fd5b600160009054906101000a900473ffffffffffffffffffffffffffffffffffffffff1673ffffffffffffffffffffffffffffffffffffffff16630e248a11336040518263ffffffff1660e01b8152600401808273ffffffffffffffffffffffffffffffffffffffff1673ffffffffffffffffffffffffffffffffffffffff16815260200191505060206040518083038186803b15801561072857600080fd5b505afa15801561073c573d6000803e3d6000fd5b505050506040513d602081101561075257600080fd5b81019080805190602001909291905050506107b8576040517f08c379a000000000000000000000000000000000000000000000000000000000815260040180806020018281038252604e815260200180611d5b604e913960600191505060405180910390fd5b600160009054906101000a900473ffffffffffffffffffffffffffffffffffffffff1673ffffffffffffffffffffffffffffffffffffffff16633cc0be9c338686866040518563ffffffff1660e01b8152600401808573ffffffffffffffffffffffffffffffffffffffff1673ffffffffffffffffffffffffffffffffffffffff168152602001806020018381526020018281038252858582818152602001925080828437600081840152601f19601f82011690508083019250505095505050505050602060405180830381600087803b15801561089557600080fd5b505af11580156108a9573d6000803e3d6000fd5b505050506040513d60208110156108bf57600080fd5b810190808051906020019092919050505090509392505050565b6108e1611bf7565b600260003373ffffffffffffffffffffffffffffffffffffffff1673ffffffffffffffffffffffffffffffffffffffff16815260200190815260200160002060000160009054906101000a900460ff166109a3576040517f08c379a000000000000000000000000000000000000000000000000000000000815260040180806020018281038252601b8152602001807f4e6f74207265676973746572656420617320616e206f7261636c65000000000081525060200191505060405180910390fd5b600260003373ffffffffffffffffffffffffffffffffffffffff1673ffffffffffffffffffffffffffffffffffffffff168152602001908152602001600020600101600380602002604051908101604052809291908260038015610a42576020028201916000905b82829054906101000a900460ff1660ff1681526020019060010190602082600001049283019260010382029150808411610a0b5790505b5050505050905090565b670de0b6b3a764000081565b6000610a626112f7565b610ab7576040517f08c379a0000000000000000000000000000000000000000000000000000000008152600401808060200182810382526025815260200180611d136025913960400191505060405180910390fd5b819050919050565b600080610aca6112f7565b610b1f576040517f08c379a0000000000000000000000000000000000000000000000000000000008152600401808060200182810382526025815260200180611d136025913960400191505060405180910390fd5b600160009054906101000a900473ffffffffffffffffffffffffffffffffffffffff1673ffffffffffffffffffffffffffffffffffffffff16630e248a11336040518263ffffffff1660e01b8152600401808273ffffffffffffffffffffffffffffffffffffffff1673ffffffffffffffffffffffffffffffffffffffff16815260200191505060206040518083038186803b158015610bbe57600080fd5b505afa158015610bd2573d6000803e3d6000fd5b505050506040513d6020811015610be857600080fd5b8101908080519060200190929190505050610c4e576040517f08c379a000000000000000000000000000000000000000000000000000000000815260040180806020018281038252604e815260200180611d5b604e913960600191505060405180910390fd5b600160009054906101000a900473ffffffffffffffffffffffffffffffffffffffff1673ffffffffffffffffffffffffffffffffffffffff1663c7ba501884336040518363ffffffff1660e01b8152600401808373ffffffffffffffffffffffffffffffffffffffff1673ffffffffffffffffffffffffffffffffffffffff1681526020018273ffffffffffffffffffffffffffffffffffffffff1673ffffffffffffffffffffffffffffffffffffffff168152602001925050506040805180830381600087803b158015610d2257600080fd5b505af1158015610d36573d6000803e3d6000fd5b505050506040513d6040811015610d4c57600080fd5b81019080805190602001909291908051906020019092919050505091509150915091565b8560ff16600260003373ffffffffffffffffffffffffffffffffffffffff1673ffffffffffffffffffffffffffffffffffffffff168152602001908152602001600020600101600060038110610dc257fe5b602091828204019190069054906101000a900460ff1660ff161480610e4f57508560ff16600260003373ffffffffffffffffffffffffffffffffffffffff1673ffffffffffffffffffffffffffffffffffffffff168152602001908152602001600020600101600160038110610e3457fe5b602091828204019190069054906101000a900460ff1660ff16145b80610ec257508560ff16600260003373ffffffffffffffffffffffffffffffffffffffff1673ffffffffffffffffffffffffffffffffffffffff168152602001908152602001600020600101600260038110610ea757fe5b602091828204019190069054906101000a900460ff1660ff16145b610f17576040517f08c379a0000000000000000000000000000000000000000000000000000000008152600401808060200182810382526023815260200180611d386023913960400191505060405180910390fd5b60008686868686604051602001808660ff1660ff1660f81b81526001018573ffffffffffffffffffffffffffffffffffffffff1673ffffffffffffffffffffffffffffffffffffffff1660601b815260140184848082843780830192505050828152602001955050505050506040516020818303038152906040528051906020012090506003600082815260200190815260200160002060000160149054906101000a900460ff16611014576040517f08c379a000000000000000000000000000000000000000000000000000000000815260040180806020018281038252602f815260200180611ce4602f913960400191505060405180910390fd5b6003600082815260200190815260200160002060010160008360ff1660ff1681526020019081526020016000203390806001815401808255809150509060018203906000526020600020016000909192909190916101000a81548173ffffffffffffffffffffffffffffffffffffffff021916908373ffffffffffffffffffffffffffffffffffffffff160217905550507f43c853095c2752648493c88b4baac4d580d2594ffb00c6f1d4242d844514f7838686868686604051808673ffffffffffffffffffffffffffffffffffffffff1673ffffffffffffffffffffffffffffffffffffffff168152602001806020018481526020018360ff1660ff1681526020018281038252868682818152602001925080828437600081840152601f19601f820116905080830192505050965050505050505060405180910390a1600380600083815260200190815260200160002060010160008460ff1660ff16815260200190815260200160002080549050106112ee577fe23f5229de535c091e3b7bec2665f5d698192d3b31393066e8987b7a05076b6c8686868686604051808673ffffffffffffffffffffffffffffffffffffffff1673ffffffffffffffffffffffffffffffffffffffff168152602001806020018481526020018360ff1660ff1681526020018281038252868682818152602001925080828437600081840152601f19601f820116905080830192505050965050505050505060405180910390a16112bd6003600083815260200190815260200160002060000160009054906101000a900473ffffffffffffffffffffffffffffffffffffffff168787878080601f016020809104026020016040519081016040528093929190818152602001838380828437600081840152601f19601f82011690508083019250505050505050868661177b565b5060006003600083815260200190815260200160002060000160146101000a81548160ff0219169083151502179055505b50505050505050565b6000600160009054906101000a900473ffffffffffffffffffffffffffffffffffffffff1673ffffffffffffffffffffffffffffffffffffffff1663cd905dff6040518163ffffffff1660e01b815260040160206040518083038186803b15801561136157600080fd5b505afa158015611375573d6000803e3d6000fd5b505050506040513d602081101561138b57600080fd5b8101908080519060200190929190505050905090565b6113a96112f7565b6113fe576040517f08c379a0000000000000000000000000000000000000000000000000000000008152600401808060200182810382526025815260200180611d136025913960400191505060405180910390fd5b600061140933611a4b565b905060008186868686604051602001808660ff1660ff1660f81b81526001018573ffffffffffffffffffffffffffffffffffffffff1673ffffffffffffffffffffffffffffffffffffffff1660601b8152601401848480828437808301925050508281526020019550505050505060405160208183030381529060405280519060200120905060405180604001604052803373ffffffffffffffffffffffffffffffffffffffff168152602001600115158152506003600083815260200190815260200160002060008201518160000160006101000a81548173ffffffffffffffffffffffffffffffffffffffff021916908373ffffffffffffffffffffffffffffffffffffffff16021790555060208201518160000160146101000a81548160ff0219169083151502179055509050507f3ed01f2c3fc24c6b329d931e35b03e390d23497d22b3f90e15b600343e93df118287878787604051808660ff1660ff1681526020018573ffffffffffffffffffffffffffffffffffffffff1673ffffffffffffffffffffffffffffffffffffffff168152602001806020018381526020018281038252858582818152602001925080828437600081840152601f19601f820116905080830192505050965050505050505060405180910390a1505050505050565b6115f7611bf7565b6115ff611bf7565b61160883611a4b565b8160006003811061161557fe5b602002019060ff16908160ff16815250508060006003811061163357fe5b60200201518160016003811061164557fe5b602002019060ff16908160ff16815250505b8060006003811061166457fe5b602002015160ff168160016003811061167957fe5b602002015160ff1614156116b35761169083611a4b565b8160016003811061169d57fe5b602002019060ff16908160ff1681525050611657565b806001600381106116c057fe5b6020020151816002600381106116d257fe5b602002019060ff16908160ff16815250505b806000600381106116f157fe5b602002015160ff168160026003811061170657fe5b602002015160ff16148061174157508060016003811061172257fe5b602002015160ff168160026003811061173757fe5b602002015160ff16145b156117725761174f83611a4b565b8160026003811061175c57fe5b602002019060ff16908160ff16815250506116e4565b80915050919050565b60006117856112f7565b6117da576040517f08c379a0000000000000000000000000000000000000000000000000000000008152600401808060200182810382526025815260200180611d136025913960400191505060405180910390fd5b60006117e7868686611b3b565b9050600160009054906101000a900473ffffffffffffffffffffffffffffffffffffffff1673ffffffffffffffffffffffffffffffffffffffff1663fbde53c082856040518363ffffffff1660e01b8152600401808381526020018260ff1660ff16815260200192505050602060405180830381600087803b15801561186c57600080fd5b505af1158015611880573d6000803e3d6000fd5b505050506040513d602081101561189657600080fd5b810190808051906020019092919050505050601460ff168360ff161415611a3e57600160009054906101000a900473ffffffffffffffffffffffffffffffffffffffff1673ffffffffffffffffffffffffffffffffffffffff166373a416bd888888886040518563ffffffff1660e01b8152600401808573ffffffffffffffffffffffffffffffffffffffff1673ffffffffffffffffffffffffffffffffffffffff1681526020018473ffffffffffffffffffffffffffffffffffffffff1673ffffffffffffffffffffffffffffffffffffffff16815260200180602001838152602001828103825284818151815260200191508051906020019080838360005b838110156119b2578082015181840152602081019050611997565b50505050905090810190601f1680156119df5780820380516001836020036101000a031916815260200191505b5095505050505050602060405180830381600087803b158015611a0157600080fd5b505af1158015611a15573d6000803e3d6000fd5b505050506040513d6020811015611a2b57600080fd5b8101908080519060200190929190505050505b8291505095945050505050565b600080600a905060008160ff166001601481819054906101000a900460ff168092919060010191906101000a81548160ff021916908360ff16021790555060ff1643034085604051602001808381526020018273ffffffffffffffffffffffffffffffffffffffff1673ffffffffffffffffffffffffffffffffffffffff1660601b8152601401925050506040516020818303038152906040528051906020012060001c81611af657fe5b06905060fa600160149054906101000a900460ff1660ff161115611b31576000600160146101000a81548160ff021916908360ff1602179055505b8092505050919050565b6000838383604051602001808473ffffffffffffffffffffffffffffffffffffffff1673ffffffffffffffffffffffffffffffffffffffff1660601b815260140183805190602001908083835b60208310611bab5780518252602082019150602081019050602083039250611b88565b6001836020036101000a03801982511681845116808217855250505050505090500182815260200193505050506040516020818303038152906040528051906020012090509392505050565b6040518060600160405280600390602082028038833980820191505090505090565b826003601f01602090048101928215611ca25791602002820160005b83821115611c7357835183826101000a81548160ff021916908360ff1602179055509260200192600101602081600001049283019260010302611c35565b8015611ca05782816101000a81549060ff0219169055600101602081600001049283019260010302611c73565b505b509050611caf9190611cb3565b5090565b611ce091905b80821115611cdc57600081816101000a81549060ff021916905550600101611cb9565b5090565b9056fe466c69676874206f722074696d657374616d7020646f206e6f74206d61746368206f7261636c652072657175657374436f6e74726163742069732063757272656e746c79206e6f74206f7065726174696f6e616c496e64657820646f6573206e6f74206d61746368206f7261636c6520726571756573745065726d697373696f6e2064656e6965643a204e6f7420612070617274696369706174696e67206169726c696e652e20526567697374657220616e64206465706f7369742031302045746865722ea165627a7a7230582020345f663355d63d95954647af3e1eb506be0d7c31b7f309e9fdb2cc6a22b37b0029",
  "source": "pragma solidity ^0.5.8;\n\n// It's important to avoid vulnerabilities due to numeric overflow bugs\n// OpenZeppelin's SafeMath library, when used correctly, protects agains such bugs\n// More info: https://www.nccgroup.trust/us/about-us/newsroom-and-events/blog/2018/november/smart-contract-insecurity-bad-arithmetic/\n\nimport \"../node_modules/@openzeppelin/contracts/math/SafeMath.sol\";\n\n\n/************************************************** */\n/* FlightSurety Smart Contract                      */\n/************************************************** */\ncontract FlightSuretyApp {\n    using SafeMath for uint256; // Allow SafeMath functions to be called for all uint256 types (similar to \"prototype\" in Javascript)\n\n    /********************************************************************************************/\n    /*                                       DATA VARIABLES                                     */\n    /********************************************************************************************/\n\n    // Flight status codes\n    uint8 private constant STATUS_CODE_UNKNOWN = 0;\n    uint8 private constant STATUS_CODE_ON_TIME = 10;\n    uint8 private constant STATUS_CODE_LATE_AIRLINE = 20;\n    uint8 private constant STATUS_CODE_LATE_WEATHER = 30;\n    uint8 private constant STATUS_CODE_LATE_TECHNICAL = 40;\n    uint8 private constant STATUS_CODE_LATE_OTHER = 50;\n\n    address private contractOwner;          // Account used to deploy contract\n    // import data contract\n    FlightSuretyData flightSuretyData;\n \n    /********************************************************************************************/\n    /*                                       FUNCTION MODIFIERS                                 */\n    /********************************************************************************************/\n\n    // Modifiers help avoid duplication of code. They are typically used to validate something\n    // before a function is allowed to be executed.\n\n    /**\n    * @dev Modifier that requires the \"operational\" boolean variable to be \"true\"\n    *      This is used on all state changing functions to pause the contract in\n    *      the event there is an issue that needs to be fixed\n    */\n    modifier requireIsOperational()\n    {\n        // Modify to call data contract's status\n        require(isOperational(), \"Contract is currently not operational\");\n        _;  // All modifiers require an \"_\" which indicates where the function body will be added\n    }\n\n    /**\n    * @dev Modifier that requires the \"ContractOwner\" account to be the function caller\n    */\n    modifier requireContractOwner()\n    {\n        require(msg.sender == contractOwner, \"Caller is not contract owner\");\n        _;\n    }\n\n    /**\n    * @dev Modifier that requires the airline to have deposited 10 Ether in order to participate\n    */\n    modifier isCallerParticipatingAirline()\n    {\n        require(flightSuretyData.isAirline(msg.sender), \"Permission denied: Not a participating airline. Register and deposit 10 Ether.\");\n        _;\n    }\n\n    /********************************************************************************************/\n    /*                                       CONSTRUCTOR                                        */\n    /********************************************************************************************/\n\n    /**\n    * @dev Contract constructor\n    *\n    */\n    constructor\n                                (\n                                    address payable dataContract\n                                )\n                                public\n    {\n        contractOwner = msg.sender;\n        flightSuretyData = FlightSuretyData(dataContract);\n    }\n\n    /********************************************************************************************/\n    /*                                       UTILITY FUNCTIONS                                  */\n    /********************************************************************************************/\n\n    function isOperational()\n                            public\n                            view\n                            returns(bool)\n    {\n        // call data contract's status\n        return flightSuretyData.isOperational();\n    }\n\n    function testIsBool(bool isTrue) external view requireIsOperational() returns(bool) {\n        return isTrue;\n    }\n\n    /********************************************************************************************/\n    /*                                     SMART CONTRACT FUNCTIONS                             */\n    /********************************************************************************************/\n\n   /**\n    * @dev Add an airline to the registration queue\n    *\n    */\n    function registerAirline\n                            (\n                                address airline\n                            )\n                            external\n                            requireIsOperational()\n                            isCallerParticipatingAirline()\n                            returns(bool success, uint256 votes)\n    {\n        // register airline\n        return flightSuretyData.registerAirline(airline, msg.sender);\n    }\n\n   /**\n    * @dev Register a future flight for insuring.\n    *\n    */\n    function registerFlight\n                                (\n                                    string calldata flight,\n                                    uint256 departureTimestamp\n                                )\n                                external\n                                requireIsOperational()\n                                isCallerParticipatingAirline()\n                                returns(bool)\n    {\n        return flightSuretyData.registerFlight(msg.sender, flight, departureTimestamp);\n    }\n\n   /**\n    * @dev Called after oracle has updated flight status\n    *\n    */\n    function processFlightStatus\n                                (\n                                    address passenger,\n                                    address airline,\n                                    string memory flight,\n                                    uint256 timestamp,\n                                    uint8 statusCode\n                                )\n                                internal\n                                requireIsOperational()\n                                returns(uint8)\n    {\n        // process flight status\n        bytes32 flightKey = getFlightKey(airline, flight, timestamp);\n        flightSuretyData.setFlightStatus(flightKey, statusCode);\n        if (statusCode == STATUS_CODE_LATE_AIRLINE) {\n            flightSuretyData.creditInsuree(passenger, airline, flight, timestamp);\n        }\n        return statusCode;\n    }\n\n    // Generate a request for oracles to fetch flight information\n    function fetchFlightStatus\n                        (\n                            address airline,\n                            string calldata flight,\n                            uint256 timestamp\n                        )\n                        external\n                        requireIsOperational()\n    {\n        uint8 index = getRandomIndex(msg.sender);\n\n        // Generate a unique key for storing the request\n        bytes32 key = keccak256(abi.encodePacked(index, airline, flight, timestamp));\n        oracleResponses[key] = ResponseInfo({\n                                                requester: msg.sender,\n                                                isOpen: true\n                                            });\n\n        emit OracleRequest(index, airline, flight, timestamp);\n    }\n\n// region ORACLE MANAGEMENT\n\n    // Incremented to add pseudo-randomness at various points\n    uint8 private nonce = 0;\n\n    // Fee to be paid when registering oracle\n    uint256 public constant REGISTRATION_FEE = 1 ether;\n\n    // Number of oracles that must respond for valid status\n    uint256 private constant MIN_RESPONSES = 3;\n\n\n    struct Oracle {\n        bool isRegistered;\n        uint8[3] indexes; // memory\n    }\n\n    // Track all registered oracles\n    mapping(address => Oracle) private oracles;\n\n    // Model for responses from oracles\n    struct ResponseInfo {\n        address requester;                              // Account that requested status\n        bool isOpen;                                    // If open, oracle responses are accepted\n        mapping(uint8 => address[]) responses;          // Mapping key is the status code reported\n                                                        // This lets us group responses and identify\n                                                        // the response of the majority of the oracles\n    }\n\n    // Track all oracle responses\n    // Key = hash(index, airline, flight, timestamp)\n    mapping(bytes32 => ResponseInfo) private oracleResponses;\n\n    // Event fired each time an oracle submits a response\n    event FlightStatusInfo(address airline, string flight, uint256 timestamp, uint8 status);\n\n    /*\n    struct FlightStatus = {\n        bool hasStatus;\n        uint8 status;\n    }\n    mapping(bytes32 => FlightStatus) private flights\n    */\n\n    event OracleReport(address airline, string flight, uint256 timestamp, uint8 status);\n\n    // Event fired when flight status request is submitted\n    // Oracles track this and if they have a matching index\n    // they fetch data and submit a response\n    event OracleRequest(uint8 index, address airline, string flight, uint256 timestamp);\n\n\n    // Register an oracle with the contract\n    function registerOracle\n                            (\n                            )\n                            external\n                            payable\n    {\n        // Require registration fee\n        require(msg.value >= REGISTRATION_FEE, \"Registration fee is required\");\n\n        uint8[3] memory indexes = generateIndexes(msg.sender);\n\n        oracles[msg.sender] = Oracle({\n                                        isRegistered: true,\n                                        indexes: indexes\n                                    });\n    }\n\n    function getMyIndexes\n                            (\n                            )\n                            external\n                            view\n                            returns(uint8[3] memory)\n    {\n        require(oracles[msg.sender].isRegistered, \"Not registered as an oracle\");\n\n        return oracles[msg.sender].indexes;\n    }\n\n    // Called by oracle when a response is available to an outstanding request\n    // For the response to be accepted, there must be a pending request that is open\n    // and matches one of the three Indexes randomly assigned to the oracle at the\n    // time of registration (i.e. uninvited oracles are not welcome)\n    function submitOracleResponse\n                        (\n                            uint8 index,\n                            address airline,\n                            string calldata flight,\n                            uint256 timestamp,\n                            uint8 statusCode\n                        )\n                        external\n    {\n        require((oracles[msg.sender].indexes[0] == index) || (oracles[msg.sender].indexes[1] == index) || (oracles[msg.sender].indexes[2] == index), \"Index does not match oracle request\");\n\n        bytes32 key = keccak256(abi.encodePacked(index, airline, flight, timestamp));\n        require(oracleResponses[key].isOpen, \"Flight or timestamp do not match oracle request\");\n\n        oracleResponses[key].responses[statusCode].push(msg.sender);\n\n        // Information isn't considered verified until at least MIN_RESPONSES\n        // oracles respond with the *** same *** information\n        emit OracleReport(airline, flight, timestamp, statusCode);\n        if (oracleResponses[key].responses[statusCode].length >= MIN_RESPONSES) {\n\n            emit FlightStatusInfo(airline, flight, timestamp, statusCode);\n\n            // Handle flight status as appropriate\n            processFlightStatus(oracleResponses[key].requester, airline, flight, timestamp, statusCode);\n            oracleResponses[key].isOpen = false;\n        }\n    }\n\n    function getFlightKey\n                        (\n                            address airline,\n                            string memory flight,\n                            uint256 timestamp\n                        )\n                        internal\n                        pure\n                        returns(bytes32)\n    {\n        return keccak256(abi.encodePacked(airline, flight, timestamp));\n    }\n\n    // Returns array of three non-duplicating integers from 0-9\n    function generateIndexes\n                            (\n                                address account\n                            )\n                            internal\n                            returns(uint8[3] memory)\n    {\n        uint8[3] memory indexes;\n        indexes[0] = getRandomIndex(account);\n        \n        indexes[1] = indexes[0];\n        while(indexes[1] == indexes[0]) {\n            indexes[1] = getRandomIndex(account);\n        }\n\n        indexes[2] = indexes[1];\n        while((indexes[2] == indexes[0]) || (indexes[2] == indexes[1])) {\n            indexes[2] = getRandomIndex(account);\n        }\n\n        return indexes;\n    }\n\n    // Returns pseudo-random integer from 0-9\n    function getRandomIndex\n                            (\n                                address account\n                            )\n                            internal\n                            returns (uint8)\n    {\n        uint8 maxValue = 10;\n\n        // Pseudo random number...the incrementing nonce adds variation\n        uint8 random = uint8(uint256(keccak256(abi.encodePacked(blockhash(block.number - nonce++), account))) % maxValue);\n\n        if (nonce > 250) {\n            nonce = 0;  // Can only fetch blockhashes for last 256 blocks so we adapt\n        }\n\n        return random;\n    }\n\n    /*\n    function getOracle\n                        (\n                            address account\n                        )\n                        external\n                        view\n                        returns(uint8[3])\n                        requireContractOwner\n    {\n        return oracles[account];\n    }\n\n    */\n// endregion\n\n    /**\n    * @dev Fallback function for funding smart contract.\n    *\n    */\n    function()\n                external\n                payable\n    {\n        flightSuretyData.depositAirlineFee.value(msg.value)(msg.sender);\n    }\n}\n\n\ninterface FlightSuretyData {\n\n    function isOperational() external view returns(bool);\n\n    function isAirline(address candidateAirline) external view returns(bool);\n\n    function registerAirline(address airline, address endorsingAirline) external returns(bool success, uint256 votes);\n\n    function registerFlight(address airline, string calldata flight, uint256 departureTimestamp) external returns(bool);\n\n    function creditInsuree(address passenger, address airline, string calldata flight, uint256 departureTimestamp) external returns(bool);\n\n    function setFlightStatus(bytes32 flightKey, uint8 statusCode) external returns(uint8);\n\n    function depositAirlineFee(address airline) external payable returns(bool);\n\n    function () external payable;\n    \n}\n",
  "sourcePath": "/Users/mauricemauser/Development/FlightSurety-Drizzle/contracts/FlightSuretyApp.sol",
  "compiler": {
    "name": "solc",
    "version": "0.5.8+commit.23d335f2.Emscripten.clang"
  },
  "schemaVersion": "3.0.15",
  "updatedAt": "2019-09-16T18:27:05.671Z",
  "devdoc": {
    "methods": {
      "constructor": {
        "details": "Contract constructor    "
      },
      "registerAirline(address)": {
        "details": "Add an airline to the registration queue    "
      },
      "registerFlight(string,uint256)": {
        "details": "Register a future flight for insuring.    "
      }
    }
  },
  "userdoc": {
    "methods": {
      "isOperational()": {
        "notice": "*****************************************************************************************"
      }
    },
    "notice": "************************************************ "
  }
}