{
  "contractName": "FlightSuretyData",
  "abi": [
    {
      "constant": true,
      "inputs": [],
      "name": "AIRLINE_FEE",
      "outputs": [
        {
          "name": "",
          "type": "uint256"
        }
      ],
      "payable": false,
      "stateMutability": "view",
      "type": "function"
    },
    {
      "inputs": [],
      "payable": true,
      "stateMutability": "payable",
      "type": "constructor"
    },
    {
      "payable": true,
      "stateMutability": "payable",
      "type": "fallback"
    },
    {
      "constant": true,
      "inputs": [],
      "name": "isOperational",
      "outputs": [
        {
          "name": "",
          "type": "bool"
        }
      ],
      "payable": false,
      "stateMutability": "view",
      "type": "function"
    },
    {
      "constant": false,
      "inputs": [
        {
          "name": "mode",
          "type": "bool"
        }
      ],
      "name": "setOperatingStatus",
      "outputs": [],
      "payable": false,
      "stateMutability": "nonpayable",
      "type": "function"
    },
    {
      "constant": false,
      "inputs": [
        {
          "name": "dataContract",
          "type": "address"
        }
      ],
      "name": "authorizeCaller",
      "outputs": [],
      "payable": false,
      "stateMutability": "nonpayable",
      "type": "function"
    },
    {
      "constant": false,
      "inputs": [
        {
          "name": "dataContract",
          "type": "address"
        }
      ],
      "name": "deauthorizeCaller",
      "outputs": [],
      "payable": false,
      "stateMutability": "nonpayable",
      "type": "function"
    },
    {
      "constant": false,
      "inputs": [
        {
          "name": "airline",
          "type": "address"
        },
        {
          "name": "endorsingAirline",
          "type": "address"
        }
      ],
      "name": "registerAirline",
      "outputs": [
        {
          "name": "success",
          "type": "bool"
        },
        {
          "name": "votes",
          "type": "uint256"
        }
      ],
      "payable": false,
      "stateMutability": "nonpayable",
      "type": "function"
    },
    {
      "constant": false,
      "inputs": [
        {
          "name": "airline",
          "type": "address"
        },
        {
          "name": "flight",
          "type": "string"
        },
        {
          "name": "departureTimestamp",
          "type": "uint256"
        }
      ],
      "name": "registerFlight",
      "outputs": [
        {
          "name": "",
          "type": "bool"
        }
      ],
      "payable": false,
      "stateMutability": "nonpayable",
      "type": "function"
    },
    {
      "constant": false,
      "inputs": [
        {
          "name": "flightKey",
          "type": "bytes32"
        },
        {
          "name": "statusCode",
          "type": "uint8"
        }
      ],
      "name": "setFlightStatus",
      "outputs": [
        {
          "name": "",
          "type": "uint8"
        }
      ],
      "payable": false,
      "stateMutability": "nonpayable",
      "type": "function"
    },
    {
      "constant": true,
      "inputs": [],
      "name": "getCredits",
      "outputs": [
        {
          "name": "",
          "type": "uint256"
        }
      ],
      "payable": false,
      "stateMutability": "view",
      "type": "function"
    },
    {
      "constant": false,
      "inputs": [
        {
          "name": "airline",
          "type": "address"
        },
        {
          "name": "flight",
          "type": "string"
        },
        {
          "name": "timestamp",
          "type": "uint256"
        }
      ],
      "name": "buy",
      "outputs": [],
      "payable": true,
      "stateMutability": "payable",
      "type": "function"
    },
    {
      "constant": true,
      "inputs": [
        {
          "name": "passenger",
          "type": "address"
        },
        {
          "name": "airline",
          "type": "address"
        },
        {
          "name": "flight",
          "type": "string"
        },
        {
          "name": "departureTimestamp",
          "type": "uint256"
        }
      ],
      "name": "insuranceCoverageForFlight",
      "outputs": [
        {
          "name": "coverage",
          "type": "uint256"
        }
      ],
      "payable": false,
      "stateMutability": "view",
      "type": "function"
    },
    {
      "constant": false,
      "inputs": [
        {
          "name": "passenger",
          "type": "address"
        },
        {
          "name": "airline",
          "type": "address"
        },
        {
          "name": "flight",
          "type": "string"
        },
        {
          "name": "departureTimestamp",
          "type": "uint256"
        }
      ],
      "name": "creditInsuree",
      "outputs": [
        {
          "name": "",
          "type": "bool"
        }
      ],
      "payable": false,
      "stateMutability": "nonpayable",
      "type": "function"
    },
    {
      "constant": false,
      "inputs": [],
      "name": "pay",
      "outputs": [],
      "payable": false,
      "stateMutability": "nonpayable",
      "type": "function"
    },
    {
      "constant": true,
      "inputs": [
        {
          "name": "airline",
          "type": "address"
        },
        {
          "name": "flight",
          "type": "string"
        },
        {
          "name": "timestamp",
          "type": "uint256"
        }
      ],
      "name": "isFlight",
      "outputs": [
        {
          "name": "",
          "type": "bool"
        }
      ],
      "payable": false,
      "stateMutability": "view",
      "type": "function"
    },
    {
      "constant": true,
      "inputs": [
        {
          "name": "candidateAirline",
          "type": "address"
        }
      ],
      "name": "isAirline",
      "outputs": [
        {
          "name": "",
          "type": "bool"
        }
      ],
      "payable": false,
      "stateMutability": "view",
      "type": "function"
    },
    {
      "constant": true,
      "inputs": [
        {
          "name": "airline",
          "type": "address"
        }
      ],
      "name": "isRegistered",
      "outputs": [
        {
          "name": "",
          "type": "bool"
        }
      ],
      "payable": false,
      "stateMutability": "view",
      "type": "function"
    },
    {
      "constant": false,
      "inputs": [
        {
          "name": "airline",
          "type": "address"
        }
      ],
      "name": "depositAirlineFee",
      "outputs": [
        {
          "name": "",
          "type": "bool"
        }
      ],
      "payable": true,
      "stateMutability": "payable",
      "type": "function"
    }
  ],
  "bytecode": "0x60806040526001600060146101000a81548160ff021916908315150217905550336000806101000a81548173ffffffffffffffffffffffffffffffffffffffff021916908373ffffffffffffffffffffffffffffffffffffffff160217905550600160078190555062000078336200008f60201b60201c565b6200008934620000ed60201b60201c565b6200019b565b6001600660008373ffffffffffffffffffffffffffffffffffffffff1673ffffffffffffffffffffffffffffffffffffffff16815260200190815260200160002060000160006101000a81548160ff02191690831515021790555050565b62000109816001546200011260201b620020831790919060201c565b60018190555050565b60008082840190508381101562000191576040517f08c379a000000000000000000000000000000000000000000000000000000000815260040180806020018281038252601b8152602001807f536166654d6174683a206164646974696f6e206f766572666c6f77000000000081525060200191505060405180910390fd5b8091505092915050565b61242380620001ab6000396000f3fe6080604052600436106100fe5760003560e01c806373a416bd11610095578063c4b37e9511610064578063c4b37e951461068f578063c7ba5018146106ba578063cd905dff1461074a578063e6143d9514610779578063fbde53c014610841576100fe565b806373a416bd14610470578063823a71af14610558578063b1c46d2214610583578063c3c5a54714610626576100fe565b80632b2bb453116100d15780632b2bb453146102aa5780632c388d5d146103065780633cc0be9c146103575780636873c21d1461041f576100fe565b80630e248a1114610109578063110466ed1461017257806314b75fb6146101af5780631b9265b814610293575b610107346108a3565b005b34801561011557600080fd5b506101586004803603602081101561012c57600080fd5b81019080803573ffffffffffffffffffffffffffffffffffffffff1690602001909291905050506108c1565b604051808215151515815260200191505060405180910390f35b34801561017e57600080fd5b506101ad6004803603602081101561019557600080fd5b8101908080351515906020019092919050505061096b565b005b3480156101bb57600080fd5b5061027d600480360360808110156101d257600080fd5b81019080803573ffffffffffffffffffffffffffffffffffffffff169060200190929190803573ffffffffffffffffffffffffffffffffffffffff1690602001909291908035906020019064010000000081111561022f57600080fd5b82018360208201111561024157600080fd5b8035906020019184600183028401116401000000008311171561026357600080fd5b909192939192939080359060200190929190505050610a4a565b6040518082815260200191505060405180910390f35b34801561029f57600080fd5b506102a8610afb565b005b6102ec600480360360208110156102c057600080fd5b81019080803573ffffffffffffffffffffffffffffffffffffffff169060200190929190505050610bce565b604051808215151515815260200191505060405180910390f35b34801561031257600080fd5b506103556004803603602081101561032957600080fd5b81019080803573ffffffffffffffffffffffffffffffffffffffff169060200190929190505050610df1565b005b34801561036357600080fd5b506104056004803603606081101561037a57600080fd5b81019080803573ffffffffffffffffffffffffffffffffffffffff169060200190929190803590602001906401000000008111156103b757600080fd5b8201836020820111156103c957600080fd5b803590602001918460018302840111640100000000831117156103eb57600080fd5b909192939192939080359060200190929190505050610f0e565b604051808215151515815260200191505060405180910390f35b34801561042b57600080fd5b5061046e6004803603602081101561044257600080fd5b81019080803573ffffffffffffffffffffffffffffffffffffffff169060200190929190505050611173565b005b34801561047c57600080fd5b5061053e6004803603608081101561049357600080fd5b81019080803573ffffffffffffffffffffffffffffffffffffffff169060200190929190803573ffffffffffffffffffffffffffffffffffffffff169060200190929190803590602001906401000000008111156104f057600080fd5b82018360208201111561050257600080fd5b8035906020019184600183028401116401000000008311171561052457600080fd5b909192939192939080359060200190929190505050611290565b604051808215151515815260200191505060405180910390f35b34801561056457600080fd5b5061056d61174e565b6040518082815260200191505060405180910390f35b6106246004803603606081101561059957600080fd5b81019080803573ffffffffffffffffffffffffffffffffffffffff169060200190929190803590602001906401000000008111156105d657600080fd5b8201836020820111156105e857600080fd5b8035906020019184600183028401116401000000008311171561060a57600080fd5b909192939192939080359060200190929190505050611795565b005b34801561063257600080fd5b506106756004803603602081101561064957600080fd5b81019080803573ffffffffffffffffffffffffffffffffffffffff1690602001909291905050506118ce565b604051808215151515815260200191505060405180910390f35b34801561069b57600080fd5b506106a4611927565b6040518082815260200191505060405180910390f35b3480156106c657600080fd5b50610729600480360360408110156106dd57600080fd5b81019080803573ffffffffffffffffffffffffffffffffffffffff169060200190929190803573ffffffffffffffffffffffffffffffffffffffff169060200190929190505050611933565b60405180831515151581526020018281526020019250505060405180910390f35b34801561075657600080fd5b5061075f611f0e565b604051808215151515815260200191505060405180910390f35b34801561078557600080fd5b506108276004803603606081101561079c57600080fd5b81019080803573ffffffffffffffffffffffffffffffffffffffff169060200190929190803590602001906401000000008111156107d957600080fd5b8201836020820111156107eb57600080fd5b8035906020019184600183028401116401000000008311171561080d57600080fd5b909192939192939080359060200190929190505050611f24565b604051808215151515815260200191505060405180910390f35b34801561084d57600080fd5b506108876004803603604081101561086457600080fd5b8101908080359060200190929190803560ff169060200190929190505050611fa7565b604051808260ff1660ff16815260200191505060405180910390f35b6108b88160015461208390919063ffffffff16565b60018190555050565b60006108cb612365565b600660008473ffffffffffffffffffffffffffffffffffffffff1673ffffffffffffffffffffffffffffffffffffffff1681526020019081526020016000206040518060600160405290816000820160009054906101000a900460ff16151515158152602001600182015481526020016003820154815250509050806000015180156109635750678ac7230489e80000816040015110155b915050919050565b6000809054906101000a900473ffffffffffffffffffffffffffffffffffffffff1673ffffffffffffffffffffffffffffffffffffffff163373ffffffffffffffffffffffffffffffffffffffff1614610a2d576040517f08c379a000000000000000000000000000000000000000000000000000000000815260040180806020018281038252601c8152602001807f43616c6c6572206973206e6f7420636f6e7472616374206f776e65720000000081525060200191505060405180910390fd5b80600060146101000a81548160ff02191690831515021790555050565b600080610a9c8686868080601f016020809104026020016040519081016040528093929190818152602001838380828437600081840152601f19601f820116905080830192505050505050508561210b565b90506003600082815260200190815260200160002060008873ffffffffffffffffffffffffffffffffffffffff1673ffffffffffffffffffffffffffffffffffffffff1681526020019081526020016000205491505095945050505050565b6000600260003373ffffffffffffffffffffffffffffffffffffffff1673ffffffffffffffffffffffffffffffffffffffff1681526020019081526020016000205490506000600260003373ffffffffffffffffffffffffffffffffffffffff1673ffffffffffffffffffffffffffffffffffffffff168152602001908152602001600020819055503373ffffffffffffffffffffffffffffffffffffffff166108fc829081150290604051600060405180830381858888f19350505050158015610bca573d6000803e3d6000fd5b5050565b60008060149054906101000a900460ff16610c34576040517f08c379a00000000000000000000000000000000000000000000000000000000081526004018080602001828103825260258152602001806123d36025913960400191505060405180910390fd5b600460003373ffffffffffffffffffffffffffffffffffffffff1673ffffffffffffffffffffffffffffffffffffffff16815260200190815260200160002060009054906101000a900460ff16610cd6576040517f08c379a00000000000000000000000000000000000000000000000000000000081526004018080602001828103825260298152602001806123896029913960400191505060405180910390fd5b600660008373ffffffffffffffffffffffffffffffffffffffff1673ffffffffffffffffffffffffffffffffffffffff16815260200190815260200160002060000160009054906101000a900460ff16610d98576040517f08c379a00000000000000000000000000000000000000000000000000000000081526004018080602001828103825260188152602001807f4e6f7420612072656769737465726564206169726c696e65000000000000000081525060200191505060405180910390fd5b34600660008473ffffffffffffffffffffffffffffffffffffffff1673ffffffffffffffffffffffffffffffffffffffff1681526020019081526020016000206003016000828254019250508190555060019050919050565b6000809054906101000a900473ffffffffffffffffffffffffffffffffffffffff1673ffffffffffffffffffffffffffffffffffffffff163373ffffffffffffffffffffffffffffffffffffffff1614610eb3576040517f08c379a000000000000000000000000000000000000000000000000000000000815260040180806020018281038252601c8152602001807f43616c6c6572206973206e6f7420636f6e7472616374206f776e65720000000081525060200191505060405180910390fd5b6001600460008373ffffffffffffffffffffffffffffffffffffffff1673ffffffffffffffffffffffffffffffffffffffff16815260200190815260200160002060006101000a81548160ff02191690831515021790555050565b6000600460003373ffffffffffffffffffffffffffffffffffffffff1673ffffffffffffffffffffffffffffffffffffffff16815260200190815260200160002060009054906101000a900460ff16610fb2576040517f08c379a00000000000000000000000000000000000000000000000000000000081526004018080602001828103825260298152602001806123896029913960400191505060405180910390fd5b600660008673ffffffffffffffffffffffffffffffffffffffff1673ffffffffffffffffffffffffffffffffffffffff16815260200190815260200160002060000160009054906101000a900460ff16611074576040517f08c379a00000000000000000000000000000000000000000000000000000000081526004018080602001828103825260118152602001807f4169726c696e65206e6f7420666f756e6400000000000000000000000000000081525060200191505060405180910390fd5b60006110c58686868080601f016020809104026020016040519081016040528093929190818152602001838380828437600081840152601f19601f820116905080830192505050505050508561210b565b905060016005600083815260200190815260200160002060000160006101000a81548160ff021916908315150217905550826005600083815260200190815260200160002060010181905550856005600083815260200190815260200160002060030160006101000a81548173ffffffffffffffffffffffffffffffffffffffff021916908373ffffffffffffffffffffffffffffffffffffffff1602179055506001915050949350505050565b6000809054906101000a900473ffffffffffffffffffffffffffffffffffffffff1673ffffffffffffffffffffffffffffffffffffffff163373ffffffffffffffffffffffffffffffffffffffff1614611235576040517f08c379a000000000000000000000000000000000000000000000000000000000815260040180806020018281038252601c8152602001807f43616c6c6572206973206e6f7420636f6e7472616374206f776e65720000000081525060200191505060405180910390fd5b6000600460008373ffffffffffffffffffffffffffffffffffffffff1673ffffffffffffffffffffffffffffffffffffffff16815260200190815260200160002060006101000a81548160ff02191690831515021790555050565b6000600460003373ffffffffffffffffffffffffffffffffffffffff1673ffffffffffffffffffffffffffffffffffffffff16815260200190815260200160002060009054906101000a900460ff16611334576040517f08c379a00000000000000000000000000000000000000000000000000000000081526004018080602001828103825260298152602001806123896029913960400191505060405180910390fd5b60006113858686868080601f016020809104026020016040519081016040528093929190818152602001838380828437600081840152601f19601f820116905080830192505050505050508561210b565b905060146005600083815260200190815260200160002060000160019054906101000a900460ff1660ff1614611423576040517f08c379a000000000000000000000000000000000000000000000000000000000815260040180806020018281038252601b8152602001807f4169726c696e652068617320636175736564206e6f2064656c6179000000000081525060200191505060405180910390fd5b60006003600083815260200190815260200160002060008973ffffffffffffffffffffffffffffffffffffffff1673ffffffffffffffffffffffffffffffffffffffff168152602001908152602001600020549050600081116114ee576040517f08c379a00000000000000000000000000000000000000000000000000000000081526004018080602001828103825260188152602001807f486173206e6f7420626f7567687420696e737572616e6365000000000000000081525060200191505060405180910390fd5b60006115666002611558600380600088815260200190815260200160002060008e73ffffffffffffffffffffffffffffffffffffffff1673ffffffffffffffffffffffffffffffffffffffff168152602001908152602001600020546121c790919063ffffffff16565b61224d90919063ffffffff16565b90506000600260008b73ffffffffffffffffffffffffffffffffffffffff1673ffffffffffffffffffffffffffffffffffffffff16815260200190815260200160002054905061160f836003600087815260200190815260200160002060008d73ffffffffffffffffffffffffffffffffffffffff1673ffffffffffffffffffffffffffffffffffffffff168152602001908152602001600020546122dc90919063ffffffff16565b6003600086815260200190815260200160002060008c73ffffffffffffffffffffffffffffffffffffffff1673ffffffffffffffffffffffffffffffffffffffff16815260200190815260200160002081905550611676828261208390919063ffffffff16565b600260008c73ffffffffffffffffffffffffffffffffffffffff1673ffffffffffffffffffffffffffffffffffffffff1681526020019081526020016000208190555060006116ce838361208390919063ffffffff16565b11611741576040517f08c379a00000000000000000000000000000000000000000000000000000000081526004018080602001828103825260158152602001807f4e6f206372656469747320746f20706179206f7574000000000000000000000081525060200191505060405180910390fd5b5050505095945050505050565b6000600260003373ffffffffffffffffffffffffffffffffffffffff1673ffffffffffffffffffffffffffffffffffffffff16815260200190815260200160002054905090565b6000341180156117ad5750670de0b6b3a76400003411155b61181f576040517f08c379a00000000000000000000000000000000000000000000000000000000081526004018080602001828103825260118152602001807f50617920757020746f203120457468657200000000000000000000000000000081525060200191505060405180910390fd5b60006118708585858080601f016020809104026020016040519081016040528093929190818152602001838380828437600081840152601f19601f820116905080830192505050505050508461210b565b9050346003600083815260200190815260200160002060003373ffffffffffffffffffffffffffffffffffffffff1673ffffffffffffffffffffffffffffffffffffffff168152602001908152602001600020819055505050505050565b6000600660008373ffffffffffffffffffffffffffffffffffffffff1673ffffffffffffffffffffffffffffffffffffffff16815260200190815260200160002060000160009054906101000a900460ff169050919050565b678ac7230489e8000081565b600080600460003373ffffffffffffffffffffffffffffffffffffffff1673ffffffffffffffffffffffffffffffffffffffff16815260200190815260200160002060009054906101000a900460ff166119d8576040517f08c379a00000000000000000000000000000000000000000000000000000000081526004018080602001828103825260298152602001806123896029913960400191505060405180910390fd5b600660008573ffffffffffffffffffffffffffffffffffffffff1673ffffffffffffffffffffffffffffffffffffffff16815260200190815260200160002060000160009054906101000a900460ff1615611a9b576040517f08c379a000000000000000000000000000000000000000000000000000000000815260040180806020018281038252601e8152602001807f4169726c696e6520697320616c726561647920726567697374657265642e000081525060200191505060405180910390fd5b600660003373ffffffffffffffffffffffffffffffffffffffff1673ffffffffffffffffffffffffffffffffffffffff16815260200190815260200160002060020160008573ffffffffffffffffffffffffffffffffffffffff1673ffffffffffffffffffffffffffffffffffffffff16815260200190815260200160002060009054906101000a900460ff1615611b9b576040517f08c379a00000000000000000000000000000000000000000000000000000000081526004018080602001828103825260178152602001807f596f75206861766520766f74656420616c72656164792e00000000000000000081525060200191505060405180910390fd5b60046007541015611d02576001600660008573ffffffffffffffffffffffffffffffffffffffff1673ffffffffffffffffffffffffffffffffffffffff16815260200190815260200160002060020160008673ffffffffffffffffffffffffffffffffffffffff1673ffffffffffffffffffffffffffffffffffffffff16815260200190815260200160002060006101000a81548160ff0219169083151502179055506007600081548092919060010191905055506001600660008673ffffffffffffffffffffffffffffffffffffffff1673ffffffffffffffffffffffffffffffffffffffff16815260200190815260200160002060000160006101000a81548160ff0219169083151502179055506001600660008673ffffffffffffffffffffffffffffffffffffffff1673ffffffffffffffffffffffffffffffffffffffff1681526020019081526020016000206001018190555060018080905091509150611f07565b600754611d5b6002600660008873ffffffffffffffffffffffffffffffffffffffff1673ffffffffffffffffffffffffffffffffffffffff168152602001908152602001600020600101546121c790919063ffffffff16565b10611e6c576007600081548092919060010191905055506001600660008673ffffffffffffffffffffffffffffffffffffffff1673ffffffffffffffffffffffffffffffffffffffff16815260200190815260200160002060000160006101000a81548160ff0219169083151502179055506001600660008673ffffffffffffffffffffffffffffffffffffffff1673ffffffffffffffffffffffffffffffffffffffff168152602001908152602001600020600101600082825401925050819055506001600660008673ffffffffffffffffffffffffffffffffffffffff1673ffffffffffffffffffffffffffffffffffffffff1681526020019081526020016000206001015491509150611f07565b6001600660008673ffffffffffffffffffffffffffffffffffffffff1673ffffffffffffffffffffffffffffffffffffffff168152602001908152602001600020600101600082825401925050819055506000600660008673ffffffffffffffffffffffffffffffffffffffff1673ffffffffffffffffffffffffffffffffffffffff16815260200190815260200160002060010154915091505b9250929050565b60008060149054906101000a900460ff16905090565b600080611f768686868080601f016020809104026020016040519081016040528093929190818152602001838380828437600081840152601f19601f820116905080830192505050505050508561210b565b90506005600082815260200190815260200160002060000160009054906101000a900460ff16915050949350505050565b6000600460003373ffffffffffffffffffffffffffffffffffffffff1673ffffffffffffffffffffffffffffffffffffffff16815260200190815260200160002060009054906101000a900460ff1661204b576040517f08c379a00000000000000000000000000000000000000000000000000000000081526004018080602001828103825260298152602001806123896029913960400191505060405180910390fd5b816005600085815260200190815260200160002060000160016101000a81548160ff021916908360ff16021790555081905092915050565b600080828401905083811015612101576040517f08c379a000000000000000000000000000000000000000000000000000000000815260040180806020018281038252601b8152602001807f536166654d6174683a206164646974696f6e206f766572666c6f77000000000081525060200191505060405180910390fd5b8091505092915050565b6000838383604051602001808473ffffffffffffffffffffffffffffffffffffffff1673ffffffffffffffffffffffffffffffffffffffff1660601b815260140183805190602001908083835b6020831061217b5780518252602082019150602081019050602083039250612158565b6001836020036101000a03801982511681845116808217855250505050505090500182815260200193505050506040516020818303038152906040528051906020012090509392505050565b6000808314156121da5760009050612247565b60008284029050828482816121eb57fe5b0414612242576040517f08c379a00000000000000000000000000000000000000000000000000000000081526004018080602001828103825260218152602001806123b26021913960400191505060405180910390fd5b809150505b92915050565b60008082116122c4576040517f08c379a000000000000000000000000000000000000000000000000000000000815260040180806020018281038252601a8152602001807f536166654d6174683a206469766973696f6e206279207a65726f00000000000081525060200191505060405180910390fd5b60008284816122cf57fe5b0490508091505092915050565b600082821115612354576040517f08c379a000000000000000000000000000000000000000000000000000000000815260040180806020018281038252601e8152602001807f536166654d6174683a207375627472616374696f6e206f766572666c6f77000081525060200191505060405180910390fd5b600082840390508091505092915050565b60405180606001604052806000151581526020016000815260200160008152509056fe43616c6c6572206973206e6f742074686520617574686f72697a65642061707020636f6e7472616374536166654d6174683a206d756c7469706c69636174696f6e206f766572666c6f77436f6e74726163742069732063757272656e746c79206e6f74206f7065726174696f6e616ca165627a7a72305820afeed263b4cd3f1cb13942b2db3bf046090e084efe6f8345f3b0c37ad1f9cd3d0029",
  "source": "pragma solidity ^0.5.8;\n\nimport \"../node_modules/@openzeppelin/contracts/math/SafeMath.sol\";\n\ncontract FlightSuretyData {\n    using SafeMath for uint256;\n\n    /********************************************************************************************/\n    /*                                       DATA VARIABLES                                     */\n    /********************************************************************************************/\n\n    address private contractOwner;                                      // Account used to deploy contract\n    bool private operational = true;                                    // Blocks all state changes throughout the contract if false\n    \n    uint256 public constant AIRLINE_FEE = 10 ether;\n    // contract funds\n    uint private balance;\n    // credit balance of given address\n    mapping(address => uint256) private credits;\n    // for a given flightKey, the insurance balances of each insuree\n    mapping(bytes32 => mapping(address => uint256)) private insurances;\n\n    mapping(address => bool) private authorizedContracts;\n\n    // flights\n    struct Flight {\n        bool isRegistered;\n        uint8 statusCode;\n        uint256 departureTimestamp;\n        uint256 updatedArrivalTimestamp;\n        address airline;\n    }\n    mapping(bytes32 => Flight) private flights;\n\n    // airlines\n    struct Airline {\n        bool isRegistered;\n        uint256 invitations;\n        mapping(address => bool) hasInvited;\n        uint256 deposit;\n    }\n    mapping(address => Airline) private airlines;\n    uint256 private airlineCount;\n\n    /********************************************************************************************/\n    /*                                       EVENT DEFINITIONS                                  */\n    /********************************************************************************************/\n\n\n    /**\n    * @dev Constructor\n    *      The deploying account becomes contractOwner\n    */\n    constructor\n                                (\n                                )\n                                public\n                                payable\n    {\n        contractOwner = msg.sender;\n        airlineCount = 1;\n        _registerAirline(msg.sender);\n        fund(msg.value);\n    }\n\n    /********************************************************************************************/\n    /*                                       FUNCTION MODIFIERS                                 */\n    /********************************************************************************************/\n\n    // Modifiers help avoid duplication of code. They are typically used to validate something\n    // before a function is allowed to be executed.\n\n    /**\n    * @dev Modifier that requires the \"operational\" boolean variable to be \"true\"\n    *      This is used on all state changing functions to pause the contract in\n    *      the event there is an issue that needs to be fixed\n    */\n    modifier requireIsOperational()\n    {\n        require(operational, \"Contract is currently not operational\");\n        _;  // All modifiers require an \"_\" which indicates where the function body will be added\n    }\n\n    /**\n    * @dev Modifier that requires the \"ContractOwner\" account to be the function caller\n    */\n    modifier requireContractOwner()\n    {\n        require(msg.sender == contractOwner, \"Caller is not contract owner\");\n        _;\n    }\n\n    modifier isCallerAuthorized() {\n        require(authorizedContracts[msg.sender], 'Caller is not the authorized app contract');\n        _;\n    }\n\n    /********************************************************************************************/\n    /*                                       UTILITY FUNCTIONS                                  */\n    /********************************************************************************************/\n\n    /**\n    * @dev Get operating status of contract\n    *\n    * @return A bool that is the current operating status\n    */\n    function isOperational()\n                            external\n                            view\n                            returns(bool)\n    {\n        return operational;\n    }\n\n\n    /**\n    * @dev Sets contract operations on/off\n    *\n    * When operational mode is disabled, all write transactions except for this one will fail\n    */\n    function setOperatingStatus\n                            (\n                                bool mode\n                            )\n                            external\n                            requireContractOwner\n    {\n        operational = mode;\n    }\n\n    function authorizeCaller(address dataContract) external requireContractOwner {\n        authorizedContracts[dataContract] = true;\n    }\n    function deauthorizeCaller(address dataContract) external requireContractOwner {\n        authorizedContracts[dataContract] = false;\n    }\n\n    /********************************************************************************************/\n    /*                                     SMART CONTRACT FUNCTIONS                             */\n    /********************************************************************************************/\n\n    function _registerAirline\n                            (\n                                address airline\n                            )\n                            internal\n    {\n        airlines[airline].isRegistered = true;\n    }\n\n   /**\n    * @dev Add an airline to the registration queue\n    *      Can only be called from FlightSuretyApp contract\n    *\n    */\n    function registerAirline\n                            (\n                                address airline,\n                                address endorsingAirline\n                            )\n                            external\n                            isCallerAuthorized()\n                            returns(bool success, uint256 votes)\n    {\n        require(!airlines[airline].isRegistered, 'Airline is already registered.');\n        require(!airlines[msg.sender].hasInvited[airline], 'You have voted already.');\n        // it takes 1 vote to register the first 4 airlines\n        if (airlineCount < 4) {\n            airlines[endorsingAirline].hasInvited[airline] = true;\n            airlineCount++;\n            airlines[airline].isRegistered = true;\n            airlines[airline].invitations = 1;\n            return (true, 1);\n        } else {\n            // it takes a majority of registered airlines' votes to register any additional airline\n            if (airlines[airline].invitations.mul(2) >= airlineCount) {\n                airlineCount++;\n                airlines[airline].isRegistered = true;\n                airlines[airline].invitations += 1;\n                return (true, airlines[airline].invitations);\n            } else {\n                airlines[airline].invitations += 1;\n                return (false, airlines[airline].invitations);\n            }\n        }\n    }\n\n    function registerFlight\n                            (\n                                address airline,\n                                string calldata flight,\n                                uint256 departureTimestamp\n                            )\n                            external\n                            isCallerAuthorized()\n                            returns(bool)\n    {\n        require(airlines[airline].isRegistered, \"Airline not found\");\n        bytes32 flightKey = getFlightKey(airline, flight, departureTimestamp);\n        flights[flightKey].isRegistered = true;\n        flights[flightKey].departureTimestamp = departureTimestamp;\n        flights[flightKey].airline = airline;\n        // uint8 statusCode;\n        // uint256 updatedArrivalTimestamp;\n        return true;\n    }\n\n    function setFlightStatus\n                            (\n                                bytes32 flightKey,\n                                uint8 statusCode\n                            )\n                            external // DANGER\n                            isCallerAuthorized()\n                            returns(uint8)\n    {\n        flights[flightKey].statusCode = statusCode;\n        return statusCode;\n    }\n\n    function getCredits\n                        (\n                        )\n                        external\n                        view\n                        returns(uint256)\n    {\n        return credits[msg.sender];\n    }\n\n   /**\n    * @dev Buy insurance for a flight\n    *\n    */\n    function buy\n                (\n                    address airline,\n                    string calldata flight,\n                    uint256 timestamp\n                )\n                external\n                payable\n    {\n        require(msg.value > 0 && msg.value <= 1 ether, 'Pay up to 1 Ether');\n        bytes32 flightKey = getFlightKey(airline, flight, timestamp);\n        insurances[flightKey][msg.sender] = msg.value;\n    }\n\n    function insuranceCoverageForFlight\n                                    (\n                                        address passenger,\n                                        address airline,\n                                        string calldata flight,\n                                        uint256 departureTimestamp\n                                    )\n                                    external\n                                    view\n                                    returns(uint256 coverage)\n    {\n        bytes32 flightNumber = getFlightKey(airline, flight, departureTimestamp);\n        return insurances[flightNumber][passenger];\n    }\n\n    /**\n     *  @dev Credits payout to insuree\n    */\n    function creditInsuree\n                                (\n                                    address passenger,\n                                    address airline,\n                                    string calldata flight,\n                                    uint256 departureTimestamp\n                                )\n                                external // DANGER\n                                isCallerAuthorized()\n                                returns(bool)\n    {\n        bytes32 flightKey = getFlightKey(airline, flight, departureTimestamp);\n        require(flights[flightKey].statusCode == 20, 'Airline has caused no delay');\n        uint256 total = insurances[flightKey][passenger];\n        require(total > 0, \"Has not bought insurance\");\n        uint256 payout = insurances[flightKey][passenger].mul(3).div(2);\n        uint256 credit = credits[passenger];\n        insurances[flightKey][passenger] = insurances[flightKey][passenger].sub(total);\n        credits[passenger] = credit.add(payout);\n        require(credit.add(payout) > 0, 'No credits to pay out');\n    }\n    \n    /**\n     *  @dev Transfers eligible payout funds to insuree\n     *\n    */\n    function pay\n                            (\n                            )\n                            external\n    {\n        uint256 credit = credits[msg.sender];\n        credits[msg.sender] = 0;\n        msg.sender.transfer(credit);\n    }\n\n   /**\n    * @dev Initial funding for the insurance. Unless there are too many delayed flights\n    *      resulting in insurance payouts, the contract should be self-sustaining\n    *\n    */\n    function fund\n                            (\n                                uint256 amount\n                            )\n                            internal\n    {\n        balance = balance.add(amount);\n    }\n\n    function getFlightKey\n                        (\n                            address airline,\n                            string memory flight,\n                            uint256 timestamp\n                        )\n                        internal\n                        pure\n                        returns(bytes32)\n    {\n        return keccak256(abi.encodePacked(airline, flight, timestamp));\n    }\n\n    function isFlight\n                    (\n                        address airline,\n                        string calldata flight,\n                        uint256 timestamp\n                    )\n                    external\n                    view\n                    returns(bool)\n    {\n        bytes32 flightKey = getFlightKey(airline, flight, timestamp);\n        return flights[flightKey].isRegistered;\n    }\n\n    function isAirline\n                    (\n                        address candidateAirline\n                    )\n                    external\n                    view\n                    returns(bool)\n    {\n        Airline memory airline = airlines[candidateAirline];\n        return airline.isRegistered && (airline.deposit >= 10 ether);\n    }\n\n    function isRegistered\n                        (\n                            address airline\n                        )\n                        public\n                        view\n                        returns(bool)\n    {\n        return airlines[airline].isRegistered;\n    }\n\n    function depositAirlineFee\n                            (\n                                address airline\n                            )\n                            external\n                            payable\n                            requireIsOperational()\n                            isCallerAuthorized()\n                            returns(bool)\n    {\n        require(airlines[airline].isRegistered, 'Not a registered airline');\n        airlines[airline].deposit += msg.value;\n        return true;\n    }\n\n    /**\n    * @dev Fallback function for funding smart contract.\n    *\n    */\n    function()\n                            external\n                            payable\n    {\n        fund(msg.value);\n    }\n\n\n}\n\n",
  "sourcePath": "/Users/mauricemauser/Development/FlightSurety-Drizzle/contracts/FlightSuretyData.sol",
  "compiler": {
    "name": "solc",
    "version": "0.5.8+commit.23d335f2.Emscripten.clang"
  },
  "schemaVersion": "3.0.15",
  "updatedAt": "2019-09-16T18:27:05.970Z",
  "devdoc": {
    "methods": {
      "buy(address,string,uint256)": {
        "details": "Buy insurance for a flight    "
      },
      "constructor": {
        "details": "Constructor     The deploying account becomes contractOwner"
      },
      "creditInsuree(address,address,string,uint256)": {
        "details": "Credits payout to insuree"
      },
      "isOperational()": {
        "details": "Get operating status of contract",
        "return": "A bool that is the current operating status"
      },
      "pay()": {
        "details": "Transfers eligible payout funds to insuree    "
      },
      "registerAirline(address,address)": {
        "details": "Add an airline to the registration queue     Can only be called from FlightSuretyApp contract    "
      },
      "setOperatingStatus(bool)": {
        "details": "Sets contract operations on/off    * When operational mode is disabled, all write transactions except for this one will fail"
      }
    }
  },
  "userdoc": {
    "methods": {}
  }
}